S00B00006666742E73726563D9
S11300000C9434000C9451000C9451000C94510045
S11300100C9451000C9451000C9451000C94510018
S11300200C9451000C9451000C9451000C94510008
S11300300C9451000C9451000C9451000C945100F8
S11300400C9451000C9451000C9451000C945100E8
S11300500C9451000C9443020C9451000C945100E4
S11300600C9451000C94510011241FBECFEFD8E022
S1130070DEBFCDBF11E0A0E0B1E0E2E1F8E002C0F4
S113008005900D92A03CB107D9F724E0A0ECB1E0B3
S113009001C01D92AE3BB207E1F70E9496020C9498
S11300A007040C9400002F923F924F925F926F923C
S11300B07F928F929F92AF92BF92CF92DF92EF92F4
S11300C0FF920F931F93CF93DF93CDB7DEB76B9758
S11300D00FB6F894DEBF0FBECDBF9E878D87788B99
S11300E06F872B8B81E090E02C0102C0440C551CDF
S11300F04A95E2F721E0421652060CF09FC1B20184
S113010061507109161617060CF03FC0E1E0F0E0EB
S113011040E050E0A1E0AD84BE840F851889C2019F
S1130120959587959C01240F351F62177307C4F3B7
S11301309C012150310942235323480F591FE417CE
S1130140F507ECF4CA2ED12C95012C0D3D1DF901B7
S1130150B081C501840F951FFC01F080F901F08284
S1130160FC01B083C00ED11EF6012081C801840FAA
S1130170951FFC013081F6013083FC012083AF5FC1
S1130180EA2FF0E06E177F0754F6F2E04F165104A1
S11301900CF44FC11D8A1C8A27E030E03A8B298B6E
S11301A061E070E07A8769878D859E85840D951D51
S11301B09F8B8E8B04C0AE81BF81BA87A987BB8910
S11301C0BB23D9F114141504E4F5ED85FE85808173
S11301D0082E000C990BAF85B8894C919C0199238A
S11301E024F422273327281B390B203431050CF043
S11301F028C1403408F025C1ED85FE853196AF85D0
S1130200B88911966E897F898191082E000C990B0B
S11302104D919C01992324F422273327281B390B61
S1130220203431050CF00DC1403408F00AC1E61742
S1130230F70751F71B861C8606C0B1E0BB871C86F6
S113024002C01B861C86E985FA85EE0FFF1FFF831B
S1130250EE8329853A85121613060CF0DEC0812C34
S1130260912C18863F01F401098802C0EE0FFF1F8C
S11302700A94E2F7E050FF4FDF01A05CBF4F9C916E
S113028080813B89311101C081956B857C85672B09
S113029011F095958595841495040CF0B3C0A98448
S11302A0BA84A80CB91CCD84DE84CA0CDB1CAF85CF
S11302B0B889AA0EBB1EED84FE84E80CF91CFD016E
S11302C0E80DF91D292F990F330BA82F880FBB0BAD
S11302D02B843C84398F288FBB8FAA8FDC82CB82FE
S11302E0D6010C91002E000C110B288D398D209F06
S11302F0C001219F900D309F900D1124082E892F4D
S1130300000C881F990B000C881F991FBA82A982C0
S1130310D5014C91042E000C550B6A8D7B8D649F86
S11303209001659F300D749F300D1124022E232FF0
S1130330000C221F330B000C221F331FA82FA170A7
S1130340B901759567953A2F361B95958795830F57
S11303502170821BA88DB98D4A9F90014B9F300D4F
S11303605A9F300D1124A901042E452F000C441F5F
S1130370550B000C441F551F6A8D7B8D609F9001A7
S1130380619F300D709F300D1124022E232F000C1D
S1130390221F330B000C221F331F8901159507956B
S11303A0BA0175956795600F4170640F2170260F2F
S11303B0A701D7019C918F0160812114310411F0B0
S11303C095956595392F381BAB81BC813C93362FAD
S11303D0321BA981BA813C93890FDA018C93260FD1
S11303E0D8012C932E813F81820E931EC60CD71CFC
S11303F0A60CB71CE60CF71CE60DF71D8414950437
S11304000CF46CCF38853F5F3887832E912C698537
S11304107A85861697060CF426CF89899A890197DE
S11304209A8B898BAE81BF81A415B5050CF4C3CE1C
S113043002C01D8A1C8A8C899D890CC08FEF9FEF96
S113044009C0EC89FD893196FD8BEC8BF1E0FB87CB
S11304501C86F9CE6B960FB6F894DEBF0FBECDBFE7
S1130460DF91CF911F910F91FF90EF90DF90CF908C
S1130470BF90AF909F908F907F906F905F904F90C0
S11304803F902F9008951F920F920FB60F92112450
S11304908F939F93EF93FF9380917900809345020C
S11304A08091C101E091C301F091C401E80FF11DF5
S11304B080914502805880838091C1018F5F809331
S11304C0C10188230CF595B182E0892785B9809113
S11304D0C201882349F085EC91E09093C401809394
S11304E0C3011092C20109C086E492E09093C40152
S11304F08093C30181E08093C2018091C00181E0B7
S11305008093C0011092C101FF91EF919F918F914F
S11305100F900FBE0F901F90189580E680937C007B
S11305208FEE80937A0010927B000895CF93DF932F
S1130530CDB7DEB7DA950FB6F894DEBF0FBECDBFE8
S113054085EC91E09093C4018093C30180E00E9404
S11305509803559A85E40E94D9030E948D0284B1C0
S1130560836084B978940F2EFFE2EF2EF02D8091F2
S1130570C0018823E1F3289A8091C2018823A1F164
S113058020E047E0BE016F577F4F85EC91E00E9469
S11305905300BE016F577F4FFE01319640E050E09B
S11305A09A012B533E4FD9019C912C91DB018D91E3
S11305B0BD01920290011124359527953595279513
S11305C0359527958802C0011124959587959595B1
S11305D0879595958795820F80834F5F5F4F3296FD
S11305E040345105E9F633C020E047E0BE016F57BF
S11305F07F4F86E492E00E945300BE016F577F4F05
S1130600FE01319640E050E09A012A5B3D4FD9014A
S11306109C912C91DB018D91BD01920290011124DA
S11306203595279535952795359527958802C001E9
S11306301124959587959595879595958795820F1E
S113064080834F5F5F4F329640345105E9F60E9434
S11306509303FE0131966F0100E00EC06E2D611B05
S1130660802F0E94EA031F5FF116C0F70F5FF2E0CC
S1130670CF0ED11C003421F0D601FC9010E0EECF57
S11306800E94780328981092C00171CF9FB7F89404
S11306905B985A982CB52F7D2CBD8EBD0DB407FEEA
S11306A0FDCF5B9A9FBF08959FB7F8945B985A9AC1
S11306B02CB520622CBD8EBD0DB407FEFDCF5B9A18
S11306C09FBF0895CF93C62F80680E9446038C2F46
S11306D080640E944603CF91089588EF91E0E6EC90
S11306E0F2E0DF019C011D9221503040E1F70895B2
S11306F00F931F93CF93DF9360E080E00E94620327
S1130700CEEBD4E006EC12E08A910E945403C017A9
S1130710D107D1F760E080E00E946203DF91CF91BE
S11307201F910F9108950E946D030E94780308950C
S1130730CF93C82F539A549A259A529A239A229A5D
S11307408CB580658CBD8DB581608DBD8CB58062A6
S11307508CBD2FE73AE186E0215030408040E1F73C
S113076000C000008FB7F8945B985C989FE72AE17B
S113077036E0915020403040E1F700C000005C9A20
S11307805B9A8FBF81E20E9446038C2F80680E948F
S1130790460384E00E94460383E10E94460380E20C
S11307A00E9446038CE00E9446030E949303CF916B
S11307B00895CF93C82F81E20E9446038C2F80684E
S11307C00E94460380E20E9446038CE00E94460396
S11307D0CF9108958435D0F46033C0F4962F969564
S11307E096959695E82FF0E084E5989FE00DF11D2D
S11307F01124EA53FD4F677081E090E002C0880F36
S1130800991F6A95E2F79081892B80830895F89463
S1050810FFCF14
S1130812000306090C0F1215181C1F2225282B2E63
S1130822303336393C3F414447494C4E5153555875
S11308325A5C5E60626466686A6C6D6F707273752E
S1130842767778797A7B7C7C7D7E7E7F7F7F7F7FE3
S11308527F7F7F7F7F7F7E7E7D7C7C7B7A797877CA
S113086276757372706F6D6C6A68666462605E5CE2
S11308725A585553514E4C494744413F3C393633FB
S1130882302E2B2825221F1C1815120F0C090603C3
S113089200FDFAF7F4F1EEEBE8E4E1DEDBD8D5D2C1
S11308A2D0CDCAC7C4C1BFBCB9B7B4B2AFADABA88F
S11308B2A6A4A2A09E9C9A9896949391908E8D8BB6
S11308C28A898887868584848382828181818181E1
S9030000FC
